{
  "_format": "hh-sol-artifact-1",
  "contractName": "MyEpicGame",
  "sourceName": "contracts/MyEpicGame.sol",
  "abi": [
    {
      "inputs": [
        {
          "internalType": "string[]",
          "name": "characterNames",
          "type": "string[]"
        },
        {
          "internalType": "string[]",
          "name": "characterImageUris",
          "type": "string[]"
        },
        {
          "internalType": "uint256[]",
          "name": "characterHp",
          "type": "uint256[]"
        },
        {
          "internalType": "uint256[]",
          "name": "characterAttackDmg",
          "type": "uint256[]"
        },
        {
          "internalType": "string",
          "name": "bossName",
          "type": "string"
        },
        {
          "internalType": "string",
          "name": "bossImageUri",
          "type": "string"
        },
        {
          "internalType": "uint256",
          "name": "bossHp",
          "type": "uint256"
        },
        {
          "internalType": "uint256",
          "name": "bossAttackDamage",
          "type": "uint256"
        }
      ],
      "stateMutability": "nonpayable",
      "type": "constructor"
    },
    {
      "anonymous": false,
      "inputs": [
        {
          "indexed": true,
          "internalType": "address",
          "name": "owner",
          "type": "address"
        },
        {
          "indexed": true,
          "internalType": "address",
          "name": "approved",
          "type": "address"
        },
        {
          "indexed": true,
          "internalType": "uint256",
          "name": "tokenId",
          "type": "uint256"
        }
      ],
      "name": "Approval",
      "type": "event"
    },
    {
      "anonymous": false,
      "inputs": [
        {
          "indexed": true,
          "internalType": "address",
          "name": "owner",
          "type": "address"
        },
        {
          "indexed": true,
          "internalType": "address",
          "name": "operator",
          "type": "address"
        },
        {
          "indexed": false,
          "internalType": "bool",
          "name": "approved",
          "type": "bool"
        }
      ],
      "name": "ApprovalForAll",
      "type": "event"
    },
    {
      "anonymous": false,
      "inputs": [
        {
          "indexed": false,
          "internalType": "uint256",
          "name": "newBossHp",
          "type": "uint256"
        },
        {
          "indexed": false,
          "internalType": "uint256",
          "name": "newPlayerHp",
          "type": "uint256"
        }
      ],
      "name": "AttackComplete",
      "type": "event"
    },
    {
      "anonymous": false,
      "inputs": [
        {
          "indexed": false,
          "internalType": "address",
          "name": "sender",
          "type": "address"
        },
        {
          "indexed": false,
          "internalType": "uint256",
          "name": "tokenId",
          "type": "uint256"
        },
        {
          "indexed": false,
          "internalType": "uint256",
          "name": "characterIndex",
          "type": "uint256"
        }
      ],
      "name": "NftMinted",
      "type": "event"
    },
    {
      "anonymous": false,
      "inputs": [
        {
          "indexed": true,
          "internalType": "address",
          "name": "from",
          "type": "address"
        },
        {
          "indexed": true,
          "internalType": "address",
          "name": "to",
          "type": "address"
        },
        {
          "indexed": true,
          "internalType": "uint256",
          "name": "tokenId",
          "type": "uint256"
        }
      ],
      "name": "Transfer",
      "type": "event"
    },
    {
      "inputs": [
        {
          "internalType": "address",
          "name": "to",
          "type": "address"
        },
        {
          "internalType": "uint256",
          "name": "tokenId",
          "type": "uint256"
        }
      ],
      "name": "approve",
      "outputs": [],
      "stateMutability": "nonpayable",
      "type": "function"
    },
    {
      "inputs": [],
      "name": "attackBoss",
      "outputs": [],
      "stateMutability": "nonpayable",
      "type": "function"
    },
    {
      "inputs": [
        {
          "internalType": "address",
          "name": "owner",
          "type": "address"
        }
      ],
      "name": "balanceOf",
      "outputs": [
        {
          "internalType": "uint256",
          "name": "",
          "type": "uint256"
        }
      ],
      "stateMutability": "view",
      "type": "function"
    },
    {
      "inputs": [],
      "name": "bigBoss",
      "outputs": [
        {
          "internalType": "string",
          "name": "name",
          "type": "string"
        },
        {
          "internalType": "string",
          "name": "imageUri",
          "type": "string"
        },
        {
          "internalType": "uint256",
          "name": "hp",
          "type": "uint256"
        },
        {
          "internalType": "uint256",
          "name": "maxHp",
          "type": "uint256"
        },
        {
          "internalType": "uint256",
          "name": "attackDamage",
          "type": "uint256"
        }
      ],
      "stateMutability": "view",
      "type": "function"
    },
    {
      "inputs": [],
      "name": "getAll",
      "outputs": [
        {
          "components": [
            {
              "internalType": "uint256",
              "name": "characterIndex",
              "type": "uint256"
            },
            {
              "internalType": "string",
              "name": "name",
              "type": "string"
            },
            {
              "internalType": "string",
              "name": "imageUri",
              "type": "string"
            },
            {
              "internalType": "uint256",
              "name": "hp",
              "type": "uint256"
            },
            {
              "internalType": "uint256",
              "name": "maxHp",
              "type": "uint256"
            },
            {
              "internalType": "uint256",
              "name": "attackDamage",
              "type": "uint256"
            }
          ],
          "internalType": "struct MyEpicGame.CharacterAttributes[]",
          "name": "",
          "type": "tuple[]"
        }
      ],
      "stateMutability": "view",
      "type": "function"
    },
    {
      "inputs": [
        {
          "internalType": "uint256",
          "name": "tokenId",
          "type": "uint256"
        }
      ],
      "name": "getApproved",
      "outputs": [
        {
          "internalType": "address",
          "name": "",
          "type": "address"
        }
      ],
      "stateMutability": "view",
      "type": "function"
    },
    {
      "inputs": [],
      "name": "getBigBoss",
      "outputs": [
        {
          "components": [
            {
              "internalType": "string",
              "name": "name",
              "type": "string"
            },
            {
              "internalType": "string",
              "name": "imageUri",
              "type": "string"
            },
            {
              "internalType": "uint256",
              "name": "hp",
              "type": "uint256"
            },
            {
              "internalType": "uint256",
              "name": "maxHp",
              "type": "uint256"
            },
            {
              "internalType": "uint256",
              "name": "attackDamage",
              "type": "uint256"
            }
          ],
          "internalType": "struct MyEpicGame.BigBoss",
          "name": "",
          "type": "tuple"
        }
      ],
      "stateMutability": "view",
      "type": "function"
    },
    {
      "inputs": [],
      "name": "getUserNFT",
      "outputs": [
        {
          "components": [
            {
              "internalType": "uint256",
              "name": "characterIndex",
              "type": "uint256"
            },
            {
              "internalType": "string",
              "name": "name",
              "type": "string"
            },
            {
              "internalType": "string",
              "name": "imageUri",
              "type": "string"
            },
            {
              "internalType": "uint256",
              "name": "hp",
              "type": "uint256"
            },
            {
              "internalType": "uint256",
              "name": "maxHp",
              "type": "uint256"
            },
            {
              "internalType": "uint256",
              "name": "attackDamage",
              "type": "uint256"
            }
          ],
          "internalType": "struct MyEpicGame.CharacterAttributes",
          "name": "",
          "type": "tuple"
        }
      ],
      "stateMutability": "view",
      "type": "function"
    },
    {
      "inputs": [
        {
          "internalType": "address",
          "name": "owner",
          "type": "address"
        },
        {
          "internalType": "address",
          "name": "operator",
          "type": "address"
        }
      ],
      "name": "isApprovedForAll",
      "outputs": [
        {
          "internalType": "bool",
          "name": "",
          "type": "bool"
        }
      ],
      "stateMutability": "view",
      "type": "function"
    },
    {
      "inputs": [
        {
          "internalType": "uint256",
          "name": "_characterIndex",
          "type": "uint256"
        }
      ],
      "name": "mintCharacterNFT",
      "outputs": [],
      "stateMutability": "nonpayable",
      "type": "function"
    },
    {
      "inputs": [],
      "name": "name",
      "outputs": [
        {
          "internalType": "string",
          "name": "",
          "type": "string"
        }
      ],
      "stateMutability": "view",
      "type": "function"
    },
    {
      "inputs": [
        {
          "internalType": "uint256",
          "name": "",
          "type": "uint256"
        }
      ],
      "name": "nftHolderAttributes",
      "outputs": [
        {
          "internalType": "uint256",
          "name": "characterIndex",
          "type": "uint256"
        },
        {
          "internalType": "string",
          "name": "name",
          "type": "string"
        },
        {
          "internalType": "string",
          "name": "imageUri",
          "type": "string"
        },
        {
          "internalType": "uint256",
          "name": "hp",
          "type": "uint256"
        },
        {
          "internalType": "uint256",
          "name": "maxHp",
          "type": "uint256"
        },
        {
          "internalType": "uint256",
          "name": "attackDamage",
          "type": "uint256"
        }
      ],
      "stateMutability": "view",
      "type": "function"
    },
    {
      "inputs": [
        {
          "internalType": "address",
          "name": "",
          "type": "address"
        }
      ],
      "name": "nftHolders",
      "outputs": [
        {
          "internalType": "uint256",
          "name": "",
          "type": "uint256"
        }
      ],
      "stateMutability": "view",
      "type": "function"
    },
    {
      "inputs": [
        {
          "internalType": "uint256",
          "name": "tokenId",
          "type": "uint256"
        }
      ],
      "name": "ownerOf",
      "outputs": [
        {
          "internalType": "address",
          "name": "",
          "type": "address"
        }
      ],
      "stateMutability": "view",
      "type": "function"
    },
    {
      "inputs": [
        {
          "internalType": "address",
          "name": "from",
          "type": "address"
        },
        {
          "internalType": "address",
          "name": "to",
          "type": "address"
        },
        {
          "internalType": "uint256",
          "name": "tokenId",
          "type": "uint256"
        }
      ],
      "name": "safeTransferFrom",
      "outputs": [],
      "stateMutability": "nonpayable",
      "type": "function"
    },
    {
      "inputs": [
        {
          "internalType": "address",
          "name": "from",
          "type": "address"
        },
        {
          "internalType": "address",
          "name": "to",
          "type": "address"
        },
        {
          "internalType": "uint256",
          "name": "tokenId",
          "type": "uint256"
        },
        {
          "internalType": "bytes",
          "name": "_data",
          "type": "bytes"
        }
      ],
      "name": "safeTransferFrom",
      "outputs": [],
      "stateMutability": "nonpayable",
      "type": "function"
    },
    {
      "inputs": [
        {
          "internalType": "address",
          "name": "operator",
          "type": "address"
        },
        {
          "internalType": "bool",
          "name": "approved",
          "type": "bool"
        }
      ],
      "name": "setApprovalForAll",
      "outputs": [],
      "stateMutability": "nonpayable",
      "type": "function"
    },
    {
      "inputs": [
        {
          "internalType": "bytes4",
          "name": "interfaceId",
          "type": "bytes4"
        }
      ],
      "name": "supportsInterface",
      "outputs": [
        {
          "internalType": "bool",
          "name": "",
          "type": "bool"
        }
      ],
      "stateMutability": "view",
      "type": "function"
    },
    {
      "inputs": [],
      "name": "symbol",
      "outputs": [
        {
          "internalType": "string",
          "name": "",
          "type": "string"
        }
      ],
      "stateMutability": "view",
      "type": "function"
    },
    {
      "inputs": [
        {
          "internalType": "uint256",
          "name": "_tokenId",
          "type": "uint256"
        }
      ],
      "name": "tokenURI",
      "outputs": [
        {
          "internalType": "string",
          "name": "",
          "type": "string"
        }
      ],
      "stateMutability": "view",
      "type": "function"
    },
    {
      "inputs": [
        {
          "internalType": "address",
          "name": "from",
          "type": "address"
        },
        {
          "internalType": "address",
          "name": "to",
          "type": "address"
        },
        {
          "internalType": "uint256",
          "name": "tokenId",
          "type": "uint256"
        }
      ],
      "name": "transferFrom",
      "outputs": [],
      "stateMutability": "nonpayable",
      "type": "function"
    }
  ],
  "bytecode": "0x60806040523480156200001157600080fd5b50604051620056fb380380620056fb833981810160405281019062000037919062000a5a565b6040518060400160405280600681526020017f56697361676500000000000000000000000000000000000000000000000000008152506040518060400160405280600381526020017f56495300000000000000000000000000000000000000000000000000000000008152508160009080519060200190620000bb929190620007ed565b508060019080519060200190620000d4929190620007ed565b5050506040518060a0016040528085815260200184815260200183815260200183815260200182815250600a60008201518160000190805190602001906200011e929190620007ed565b5060208201518160010190805190602001906200013d929190620007ed565b50604082015181600201556060820151816003015560808201518160040155905050620002c06040518060600160405280602a8152602001620056d1602a9139600a60000180546200018f9062000de5565b80601f0160208091040260200160405190810160405280929190818152602001828054620001bd9062000de5565b80156200020e5780601f10620001e2576101008083540402835291602001916200020e565b820191906000526020600020905b815481529060010190602001808311620001f057829003601f168201915b5050505050600a60020154600a60010180546200022b9062000de5565b80601f0160208091040260200160405190810160405280929190818152602001828054620002599062000de5565b8015620002aa5780601f106200027e57610100808354040283529160200191620002aa565b820191906000526020600020905b8154815290600101906020018083116200028c57829003601f168201915b50505050506200070260201b62001d451760201c565b60005b8851811015620006dc5760076040518060c001604052808381526020018b84815181106200031a577f4e487b7100000000000000000000000000000000000000000000000000000000600052603260045260246000fd5b602002602001015181526020018a848151811062000361577f4e487b7100000000000000000000000000000000000000000000000000000000600052603260045260246000fd5b60200260200101518152602001898481518110620003a8577f4e487b7100000000000000000000000000000000000000000000000000000000600052603260045260246000fd5b60200260200101518152602001898481518110620003ef577f4e487b7100000000000000000000000000000000000000000000000000000000600052603260045260246000fd5b6020026020010151815260200188848151811062000436577f4e487b7100000000000000000000000000000000000000000000000000000000600052603260045260246000fd5b6020026020010151815250908060018154018082558091505060019003906000526020600020906006020160009091909190915060008201518160000155602082015181600101908051906020019062000492929190620007ed565b506040820151816002019080519060200190620004b1929190620007ed565b50606082015181600301556080820151816004015560a0820151816005015550506000600782815481106200050f577f4e487b7100000000000000000000000000000000000000000000000000000000600052603260045260246000fd5b90600052602060002090600602016040518060c001604052908160008201548152602001600182018054620005449062000de5565b80601f0160208091040260200160405190810160405280929190818152602001828054620005729062000de5565b8015620005c35780601f106200059757610100808354040283529160200191620005c3565b820191906000526020600020905b815481529060010190602001808311620005a557829003601f168201915b50505050508152602001600282018054620005de9062000de5565b80601f01602080910402602001604051908101604052809291908181526020018280546200060c9062000de5565b80156200065d5780601f1062000631576101008083540402835291602001916200065d565b820191906000526020600020905b8154815290600101906020018083116200063f57829003601f168201915b5050505050815260200160038201548152602001600482015481526020016005820154815250509050620006c4604051806060016040528060258152602001620056ac602591398260200151836060015184604001516200070260201b62001d451760201c565b50600181620006d4919062000d48565b9050620002c3565b50620006f46006620007ae60201b62001de71760201c565b505050505050505062000ed3565b620007a8848484846040516024016200071f949392919062000c05565b6040516020818303038152906040527f8d142cdd000000000000000000000000000000000000000000000000000000007bffffffffffffffffffffffffffffffffffffffffffffffffffffffff19166020820180517bffffffffffffffffffffffffffffffffffffffffffffffffffffffff8381831617835250505050620007c460201b60201c565b50505050565b6001816000016000828254019250508190555050565b60008151905060006a636f6e736f6c652e6c6f679050602083016000808483855afa5050505050565b828054620007fb9062000de5565b90600052602060002090601f0160209004810192826200081f57600085556200086b565b82601f106200083a57805160ff19168380011785556200086b565b828001600101855582156200086b579182015b828111156200086a5782518255916020019190600101906200084d565b5b5090506200087a91906200087e565b5090565b5b80821115620008995760008160009055506001016200087f565b5090565b6000620008b4620008ae8462000c9b565b62000c67565b9050808382526020820190508260005b85811015620008f85781518501620008dd888262000a16565b845260208401935060208301925050600181019050620008c4565b5050509392505050565b600062000919620009138462000cca565b62000c67565b905080838252602082019050828560208602820111156200093957600080fd5b60005b858110156200096d578162000952888262000a43565b8452602084019350602083019250506001810190506200093c565b5050509392505050565b60006200098e620009888462000cf9565b62000c67565b905082815260208101848484011115620009a757600080fd5b620009b484828562000daf565b509392505050565b600082601f830112620009ce57600080fd5b8151620009e08482602086016200089d565b91505092915050565b600082601f830112620009fb57600080fd5b815162000a0d84826020860162000902565b91505092915050565b600082601f83011262000a2857600080fd5b815162000a3a84826020860162000977565b91505092915050565b60008151905062000a548162000eb9565b92915050565b600080600080600080600080610100898b03121562000a7857600080fd5b600089015167ffffffffffffffff81111562000a9357600080fd5b62000aa18b828c01620009bc565b985050602089015167ffffffffffffffff81111562000abf57600080fd5b62000acd8b828c01620009bc565b975050604089015167ffffffffffffffff81111562000aeb57600080fd5b62000af98b828c01620009e9565b965050606089015167ffffffffffffffff81111562000b1757600080fd5b62000b258b828c01620009e9565b955050608089015167ffffffffffffffff81111562000b4357600080fd5b62000b518b828c0162000a16565b94505060a089015167ffffffffffffffff81111562000b6f57600080fd5b62000b7d8b828c0162000a16565b93505060c062000b908b828c0162000a43565b92505060e062000ba38b828c0162000a43565b9150509295985092959890939650565b600062000bc08262000d2c565b62000bcc818562000d37565b935062000bde81856020860162000daf565b62000be98162000ea8565b840191505092915050565b62000bff8162000da5565b82525050565b6000608082019050818103600083015262000c21818762000bb3565b9050818103602083015262000c37818662000bb3565b905062000c48604083018562000bf4565b818103606083015262000c5c818462000bb3565b905095945050505050565b6000604051905081810181811067ffffffffffffffff8211171562000c915762000c9062000e79565b5b8060405250919050565b600067ffffffffffffffff82111562000cb95762000cb862000e79565b5b602082029050602081019050919050565b600067ffffffffffffffff82111562000ce85762000ce762000e79565b5b602082029050602081019050919050565b600067ffffffffffffffff82111562000d175762000d1662000e79565b5b601f19601f8301169050602081019050919050565b600081519050919050565b600082825260208201905092915050565b600062000d558262000da5565b915062000d628362000da5565b9250827fffffffffffffffffffffffffffffffffffffffffffffffffffffffffffffffff0382111562000d9a5762000d9962000e1b565b5b828201905092915050565b6000819050919050565b60005b8381101562000dcf57808201518184015260208101905062000db2565b8381111562000ddf576000848401525b50505050565b6000600282049050600182168062000dfe57607f821691505b6020821081141562000e155762000e1462000e4a565b5b50919050565b7f4e487b7100000000000000000000000000000000000000000000000000000000600052601160045260246000fd5b7f4e487b7100000000000000000000000000000000000000000000000000000000600052602260045260246000fd5b7f4e487b7100000000000000000000000000000000000000000000000000000000600052604160045260246000fd5b6000601f19601f8301169050919050565b62000ec48162000da5565b811462000ed057600080fd5b50565b6147c98062000ee36000396000f3fe608060405234801561001057600080fd5b50600436106101375760003560e01c806370a08231116100b8578063a9c326791161007c578063a9c3267914610367578063b88d4fde14610389578063c87b56dd146103a5578063d4f24c5b146103d5578063e985e9c5146103df578063f8b81ef71461040f57610137565b806370a08231146102985780637df124a1146102c857806395d89b41146102f857806398da4c9514610316578063a22cb4651461034b57610137565b806323b872dd116100ff57806323b872dd146101f457806334238d931461021057806342842e0e1461022e57806353ed51431461024a5780636352211e1461026857610137565b806301ffc9a71461013c5780630665f9611461016c57806306fdde031461018a578063081812fc146101a8578063095ea7b3146101d8575b600080fd5b6101566004803603810190610151919061301f565b61042b565b6040516101639190613d7f565b60405180910390f35b61017461050d565b6040516101819190614118565b60405180910390f35b610192610669565b60405161019f9190613d9a565b60405180910390f35b6101c260048036038101906101bd9190613071565b6106fb565b6040516101cf9190613cbf565b60405180910390f35b6101f260048036038101906101ed9190612fe3565b610780565b005b61020e60048036038101906102099190612edd565b610898565b005b6102186108f8565b604051610225919061413a565b60405180910390f35b61024860048036038101906102439190612edd565b610ad0565b005b610252610af0565b60405161025f9190613d5d565b60405180910390f35b610282600480360381019061027d9190613071565b610c9b565b60405161028f9190613cbf565b60405180910390f35b6102b260048036038101906102ad9190612e78565b610d4d565b6040516102bf919061415c565b60405180910390f35b6102e260048036038101906102dd9190612e78565b610e05565b6040516102ef919061415c565b60405180910390f35b610300610e1d565b60405161030d9190613d9a565b60405180910390f35b610330600480360381019061032b9190613071565b610eaf565b60405161034296959493929190614177565b60405180910390f35b61036560048036038101906103609190612fa7565b610ffb565b005b61036f61117c565b604051610380959493929190613e69565b60405180910390f35b6103a3600480360381019061039e9190612f2c565b6112b0565b005b6103bf60048036038101906103ba9190613071565b611312565b6040516103cc9190613d9a565b60405180910390f35b6103dd61152d565b005b6103f960048036038101906103f49190612ea1565b6118bd565b6040516104069190613d7f565b60405180910390f35b61042960048036038101906104249190613071565b611951565b005b60007f80ac58cd000000000000000000000000000000000000000000000000000000007bffffffffffffffffffffffffffffffffffffffffffffffffffffffff1916827bffffffffffffffffffffffffffffffffffffffffffffffffffffffff191614806104f657507f5b5e139f000000000000000000000000000000000000000000000000000000007bffffffffffffffffffffffffffffffffffffffffffffffffffffffff1916827bffffffffffffffffffffffffffffffffffffffffffffffffffffffff1916145b80610506575061050582611dfd565b5b9050919050565b610515612c9f565b600a6040518060a0016040529081600082018054610532906144c8565b80601f016020809104026020016040519081016040528092919081815260200182805461055e906144c8565b80156105ab5780601f10610580576101008083540402835291602001916105ab565b820191906000526020600020905b81548152906001019060200180831161058e57829003601f168201915b505050505081526020016001820180546105c4906144c8565b80601f01602080910402602001604051908101604052809291908181526020018280546105f0906144c8565b801561063d5780601f106106125761010080835404028352916020019161063d565b820191906000526020600020905b81548152906001019060200180831161062057829003601f168201915b505050505081526020016002820154815260200160038201548152602001600482015481525050905090565b606060008054610678906144c8565b80601f01602080910402602001604051908101604052809291908181526020018280546106a4906144c8565b80156106f15780601f106106c6576101008083540402835291602001916106f1565b820191906000526020600020905b8154815290600101906020018083116106d457829003601f168201915b5050505050905090565b600061070682611e67565b610745576040517f08c379a000000000000000000000000000000000000000000000000000000000815260040161073c90614098565b60405180910390fd5b6004600083815260200190815260200160002060009054906101000a900473ffffffffffffffffffffffffffffffffffffffff169050919050565b600061078b82610c9b565b90508073ffffffffffffffffffffffffffffffffffffffff168373ffffffffffffffffffffffffffffffffffffffff1614156107fc576040517f08c379a00000000000000000000000000000000000000000000000000000000081526004016107f3906140d8565b60405180910390fd5b8073ffffffffffffffffffffffffffffffffffffffff1661081b611ed3565b73ffffffffffffffffffffffffffffffffffffffff16148061084a575061084981610844611ed3565b6118bd565b5b610889576040517f08c379a000000000000000000000000000000000000000000000000000000000815260040161088090614018565b60405180910390fd5b6108938383611edb565b505050565b6108a96108a3611ed3565b82611f94565b6108e8576040517f08c379a00000000000000000000000000000000000000000000000000000000081526004016108df906140f8565b60405180910390fd5b6108f3838383612072565b505050565b610900612cce565b6000600960003373ffffffffffffffffffffffffffffffffffffffff1673ffffffffffffffffffffffffffffffffffffffff1681526020019081526020016000205490506000811115610abf57600860008281526020019081526020016000206040518060c001604052908160008201548152602001600182018054610985906144c8565b80601f01602080910402602001604051908101604052809291908181526020018280546109b1906144c8565b80156109fe5780601f106109d3576101008083540402835291602001916109fe565b820191906000526020600020905b8154815290600101906020018083116109e157829003601f168201915b50505050508152602001600282018054610a17906144c8565b80601f0160208091040260200160405190810160405280929190818152602001828054610a43906144c8565b8015610a905780601f10610a6557610100808354040283529160200191610a90565b820191906000526020600020905b815481529060010190602001808311610a7357829003601f168201915b505050505081526020016003820154815260200160048201548152602001600582015481525050915050610acd565b610ac7612cce565b80925050505b90565b610aeb838383604051806020016040528060008152506112b0565b505050565b60606007805480602002602001604051908101604052809291908181526020016000905b82821015610c9257838290600052602060002090600602016040518060c001604052908160008201548152602001600182018054610b51906144c8565b80601f0160208091040260200160405190810160405280929190818152602001828054610b7d906144c8565b8015610bca5780601f10610b9f57610100808354040283529160200191610bca565b820191906000526020600020905b815481529060010190602001808311610bad57829003601f168201915b50505050508152602001600282018054610be3906144c8565b80601f0160208091040260200160405190810160405280929190818152602001828054610c0f906144c8565b8015610c5c5780601f10610c3157610100808354040283529160200191610c5c565b820191906000526020600020905b815481529060010190602001808311610c3f57829003601f168201915b50505050508152602001600382015481526020016004820154815260200160058201548152505081526020019060010190610b14565b50505050905090565b6000806002600084815260200190815260200160002060009054906101000a900473ffffffffffffffffffffffffffffffffffffffff169050600073ffffffffffffffffffffffffffffffffffffffff168173ffffffffffffffffffffffffffffffffffffffff161415610d44576040517f08c379a0000000000000000000000000000000000000000000000000000000008152600401610d3b90614058565b60405180910390fd5b80915050919050565b60008073ffffffffffffffffffffffffffffffffffffffff168273ffffffffffffffffffffffffffffffffffffffff161415610dbe576040517f08c379a0000000000000000000000000000000000000000000000000000000008152600401610db590614038565b60405180910390fd5b600360008373ffffffffffffffffffffffffffffffffffffffff1673ffffffffffffffffffffffffffffffffffffffff168152602001908152602001600020549050919050565b60096020528060005260406000206000915090505481565b606060018054610e2c906144c8565b80601f0160208091040260200160405190810160405280929190818152602001828054610e58906144c8565b8015610ea55780601f10610e7a57610100808354040283529160200191610ea5565b820191906000526020600020905b815481529060010190602001808311610e8857829003601f168201915b5050505050905090565b6008602052806000526040600020600091509050806000015490806001018054610ed8906144c8565b80601f0160208091040260200160405190810160405280929190818152602001828054610f04906144c8565b8015610f515780601f10610f2657610100808354040283529160200191610f51565b820191906000526020600020905b815481529060010190602001808311610f3457829003601f168201915b505050505090806002018054610f66906144c8565b80601f0160208091040260200160405190810160405280929190818152602001828054610f92906144c8565b8015610fdf5780601f10610fb457610100808354040283529160200191610fdf565b820191906000526020600020905b815481529060010190602001808311610fc257829003601f168201915b5050505050908060030154908060040154908060050154905086565b611003611ed3565b73ffffffffffffffffffffffffffffffffffffffff168273ffffffffffffffffffffffffffffffffffffffff161415611071576040517f08c379a000000000000000000000000000000000000000000000000000000000815260040161106890613fb8565b60405180910390fd5b806005600061107e611ed3565b73ffffffffffffffffffffffffffffffffffffffff1673ffffffffffffffffffffffffffffffffffffffff16815260200190815260200160002060008473ffffffffffffffffffffffffffffffffffffffff1673ffffffffffffffffffffffffffffffffffffffff16815260200190815260200160002060006101000a81548160ff0219169083151502179055508173ffffffffffffffffffffffffffffffffffffffff1661112b611ed3565b73ffffffffffffffffffffffffffffffffffffffff167f17307eab39ab6107e8899845ad3d59bd9653f200f220920489ca2b5937696c31836040516111709190613d7f565b60405180910390a35050565b600a80600001805461118d906144c8565b80601f01602080910402602001604051908101604052809291908181526020018280546111b9906144c8565b80156112065780601f106111db57610100808354040283529160200191611206565b820191906000526020600020905b8154815290600101906020018083116111e957829003601f168201915b50505050509080600101805461121b906144c8565b80601f0160208091040260200160405190810160405280929190818152602001828054611247906144c8565b80156112945780601f1061126957610100808354040283529160200191611294565b820191906000526020600020905b81548152906001019060200180831161127757829003601f168201915b5050505050908060020154908060030154908060040154905085565b6112c16112bb611ed3565b83611f94565b611300576040517f08c379a00000000000000000000000000000000000000000000000000000000081526004016112f7906140f8565b60405180910390fd5b61130c848484846122ce565b50505050565b60606000600860008481526020019081526020016000206040518060c00160405290816000820154815260200160018201805461134e906144c8565b80601f016020809104026020016040519081016040528092919081815260200182805461137a906144c8565b80156113c75780601f1061139c576101008083540402835291602001916113c7565b820191906000526020600020905b8154815290600101906020018083116113aa57829003601f168201915b505050505081526020016002820180546113e0906144c8565b80601f016020809104026020016040519081016040528092919081815260200182805461140c906144c8565b80156114595780601f1061142e57610100808354040283529160200191611459565b820191906000526020600020905b81548152906001019060200180831161143c57829003601f168201915b50505050508152602001600382015481526020016004820154815260200160058201548152505090506000611491826060015161232a565b905060006114a2836080015161232a565b905060006114b38460a0015161232a565b905060006114f985602001516114c88961232a565b87604001518787876040516020016114e596959493929190613bf8565b6040516020818303038152906040526124d7565b905060008160405160200161150e9190613c9d565b6040516020818303038152906040529050809650505050505050919050565b6000600960003373ffffffffffffffffffffffffffffffffffffffff1673ffffffffffffffffffffffffffffffffffffffff16815260200190815260200160002054905060006008600083815260200190815260200160002090506116406040518060600160405280603c8152602001614758603c91398260010180546115b3906144c8565b80601f01602080910402602001604051908101604052809291908181526020018280546115df906144c8565b801561162c5780601f106116015761010080835404028352916020019161162c565b820191906000526020600020905b81548152906001019060200180831161160f57829003601f168201915b505050505083600301548460050154612695565b6117186040518060400160405280601b81526020017f426f73732025732068617320257320485020616e642025732041440000000000815250600a6000018054611689906144c8565b80601f01602080910402602001604051908101604052809291908181526020018280546116b5906144c8565b80156117025780601f106116d757610100808354040283529160200191611702565b820191906000526020600020905b8154815290600101906020018083116116e557829003601f168201915b5050505050600a60020154600a60040154612695565b600081600301541161175f576040517f08c379a000000000000000000000000000000000000000000000000000000000815260040161175690613f38565b60405180910390fd5b6000600a60020154116117a7576040517f08c379a000000000000000000000000000000000000000000000000000000000815260040161179e90613ff8565b60405180910390fd5b8060050154600a6002015410156117c8576000600a600201819055506117e9565b8060050154600a60020160008282546117e191906143de565b925050819055505b600a6004015481600301541015611809576000816003018190555061182a565b600a6004015481600301600082825461182291906143de565b925050819055505b61185160405180606001604052806025815260200161469e60259139600a60020154612737565b6118776040518060600160405280602781526020016146c3602791398260030154612737565b7f838ab28464562786a6c4ab2311964b82fa60bd9b14aa7e856af1f3f18d41a414600a6002015482600301546040516118b19291906141e6565b60405180910390a15050565b6000600560008473ffffffffffffffffffffffffffffffffffffffff1673ffffffffffffffffffffffffffffffffffffffff16815260200190815260200160002060008373ffffffffffffffffffffffffffffffffffffffff1673ffffffffffffffffffffffffffffffffffffffff16815260200190815260200160002060009054906101000a900460ff16905092915050565b600061195d60066127d3565b905061196933826127e1565b6040518060c00160405280838152602001600784815481106119b4577f4e487b7100000000000000000000000000000000000000000000000000000000600052603260045260246000fd5b906000526020600020906006020160010180546119d0906144c8565b80601f01602080910402602001604051908101604052809291908181526020018280546119fc906144c8565b8015611a495780601f10611a1e57610100808354040283529160200191611a49565b820191906000526020600020905b815481529060010190602001808311611a2c57829003601f168201915b5050505050815260200160078481548110611a8d577f4e487b7100000000000000000000000000000000000000000000000000000000600052603260045260246000fd5b90600052602060002090600602016002018054611aa9906144c8565b80601f0160208091040260200160405190810160405280929190818152602001828054611ad5906144c8565b8015611b225780601f10611af757610100808354040283529160200191611b22565b820191906000526020600020905b815481529060010190602001808311611b0557829003601f168201915b5050505050815260200160078481548110611b66577f4e487b7100000000000000000000000000000000000000000000000000000000600052603260045260246000fd5b906000526020600020906006020160030154815260200160078481548110611bb7577f4e487b7100000000000000000000000000000000000000000000000000000000600052603260045260246000fd5b906000526020600020906006020160040154815260200160078481548110611c08577f4e487b7100000000000000000000000000000000000000000000000000000000600052603260045260246000fd5b90600052602060002090600602016005015481525060086000838152602001908152602001600020600082015181600001556020820151816001019080519060200190611c56929190612d04565b506040820151816002019080519060200190611c73929190612d04565b50606082015181600301556080820151816004015560a08201518160050155905050611cb86040518060600160405280602e815260200161472a602e913982846127ff565b80600960003373ffffffffffffffffffffffffffffffffffffffff1673ffffffffffffffffffffffffffffffffffffffff16815260200190815260200160002081905550611d066006611de7565b7ffc612aad4e70fb3e1d4832d8c65f92e4024aa87f809d131267a79bceee757f33338284604051611d3993929190613d26565b60405180910390a15050565b611de184848484604051602401611d5f9493929190613dbc565b6040516020818303038152906040527f8d142cdd000000000000000000000000000000000000000000000000000000007bffffffffffffffffffffffffffffffffffffffffffffffffffffffff19166020820180517bffffffffffffffffffffffffffffffffffffffffffffffffffffffff838183161783525050505061289e565b50505050565b6001816000016000828254019250508190555050565b60007f01ffc9a7000000000000000000000000000000000000000000000000000000007bffffffffffffffffffffffffffffffffffffffffffffffffffffffff1916827bffffffffffffffffffffffffffffffffffffffffffffffffffffffff1916149050919050565b60008073ffffffffffffffffffffffffffffffffffffffff166002600084815260200190815260200160002060009054906101000a900473ffffffffffffffffffffffffffffffffffffffff1673ffffffffffffffffffffffffffffffffffffffff1614159050919050565b600033905090565b816004600083815260200190815260200160002060006101000a81548173ffffffffffffffffffffffffffffffffffffffff021916908373ffffffffffffffffffffffffffffffffffffffff160217905550808273ffffffffffffffffffffffffffffffffffffffff16611f4e83610c9b565b73ffffffffffffffffffffffffffffffffffffffff167f8c5be1e5ebec7d5bd14f71427d1e84f3dd0314c0f7b2291e5b200ac8c7c3b92560405160405180910390a45050565b6000611f9f82611e67565b611fde576040517f08c379a0000000000000000000000000000000000000000000000000000000008152600401611fd590613fd8565b60405180910390fd5b6000611fe983610c9b565b90508073ffffffffffffffffffffffffffffffffffffffff168473ffffffffffffffffffffffffffffffffffffffff16148061205857508373ffffffffffffffffffffffffffffffffffffffff16612040846106fb565b73ffffffffffffffffffffffffffffffffffffffff16145b80612069575061206881856118bd565b5b91505092915050565b8273ffffffffffffffffffffffffffffffffffffffff1661209282610c9b565b73ffffffffffffffffffffffffffffffffffffffff16146120e8576040517f08c379a00000000000000000000000000000000000000000000000000000000081526004016120df906140b8565b60405180910390fd5b600073ffffffffffffffffffffffffffffffffffffffff168273ffffffffffffffffffffffffffffffffffffffff161415612158576040517f08c379a000000000000000000000000000000000000000000000000000000000815260040161214f90613f98565b60405180910390fd5b6121638383836128c7565b61216e600082611edb565b6001600360008573ffffffffffffffffffffffffffffffffffffffff1673ffffffffffffffffffffffffffffffffffffffff16815260200190815260200160002060008282546121be91906143de565b925050819055506001600360008473ffffffffffffffffffffffffffffffffffffffff1673ffffffffffffffffffffffffffffffffffffffff168152602001908152602001600020600082825461221591906142fd565b92505081905550816002600083815260200190815260200160002060006101000a81548173ffffffffffffffffffffffffffffffffffffffff021916908373ffffffffffffffffffffffffffffffffffffffff160217905550808273ffffffffffffffffffffffffffffffffffffffff168473ffffffffffffffffffffffffffffffffffffffff167fddf252ad1be2c89b69c2b068fc378daa952ba7f163c4a11628f55a4df523b3ef60405160405180910390a4505050565b6122d9848484612072565b6122e5848484846128cc565b612324576040517f08c379a000000000000000000000000000000000000000000000000000000000815260040161231b90613f58565b60405180910390fd5b50505050565b60606000821415612372576040518060400160405280600181526020017f300000000000000000000000000000000000000000000000000000000000000081525090506124d2565b600082905060005b600082146123a457808061238d906144fa565b915050600a8261239d9190614353565b915061237a565b60008167ffffffffffffffff8111156123e6577f4e487b7100000000000000000000000000000000000000000000000000000000600052604160045260246000fd5b6040519080825280601f01601f1916602001820160405280156124185781602001600182028036833780820191505090505b5090505b600085146124cb5760018261243191906143de565b9150600a856124409190614543565b603061244c91906142fd565b60f81b818381518110612488577f4e487b7100000000000000000000000000000000000000000000000000000000600052603260045260246000fd5b60200101907effffffffffffffffffffffffffffffffffffffffffffffffffffffffffffff1916908160001a905350600a856124c49190614353565b945061241c565b8093505050505b919050565b606060008251905060008114156125005760405180602001604052806000815250915050612690565b6000600360028361251191906142fd565b61251b9190614353565b60046125279190614384565b9050600060208261253891906142fd565b67ffffffffffffffff811115612577577f4e487b7100000000000000000000000000000000000000000000000000000000600052604160045260246000fd5b6040519080825280601f01601f1916602001820160405280156125a95781602001600182028036833780820191505090505b50905060006040518060600160405280604081526020016146ea604091399050600181016020830160005b8681101561264d5760038101905062ffffff818a015116603f8160121c168401518060081b905060ff603f83600c1c1686015116810190508060081b905060ff603f8360061c1686015116810190508060081b905060ff603f831686015116810190508060e01b905080845260048401935050506125d4565b506003860660018114612667576002811461267757612682565b613d3d60f01b6002830352612682565b603d60f81b60018303525b508484525050819450505050505b919050565b612731848484846040516024016126af9493929190613e16565b6040516020818303038152906040527fd5cf17d0000000000000000000000000000000000000000000000000000000007bffffffffffffffffffffffffffffffffffffffffffffffffffffffff19166020820180517bffffffffffffffffffffffffffffffffffffffffffffffffffffffff838183161783525050505061289e565b50505050565b6127cf828260405160240161274d929190613eca565b6040516020818303038152906040527f9710a9d0000000000000000000000000000000000000000000000000000000007bffffffffffffffffffffffffffffffffffffffffffffffffffffffff19166020820180517bffffffffffffffffffffffffffffffffffffffffffffffffffffffff838183161783525050505061289e565b5050565b600081600001549050919050565b6127fb828260405180602001604052806000815250612a63565b5050565b61289983838360405160240161281793929190613efa565b6040516020818303038152906040527f969cdd03000000000000000000000000000000000000000000000000000000007bffffffffffffffffffffffffffffffffffffffffffffffffffffffff19166020820180517bffffffffffffffffffffffffffffffffffffffffffffffffffffffff838183161783525050505061289e565b505050565b60008151905060006a636f6e736f6c652e6c6f679050602083016000808483855afa5050505050565b505050565b60006128ed8473ffffffffffffffffffffffffffffffffffffffff16612abe565b15612a56578373ffffffffffffffffffffffffffffffffffffffff1663150b7a02612916611ed3565b8786866040518563ffffffff1660e01b81526004016129389493929190613cda565b602060405180830381600087803b15801561295257600080fd5b505af192505050801561298357506040513d601f19601f820116820180604052508101906129809190613048565b60015b612a06573d80600081146129b3576040519150601f19603f3d011682016040523d82523d6000602084013e6129b8565b606091505b506000815114156129fe576040517f08c379a00000000000000000000000000000000000000000000000000000000081526004016129f590613f58565b60405180910390fd5b805181602001fd5b63150b7a0260e01b7bffffffffffffffffffffffffffffffffffffffffffffffffffffffff1916817bffffffffffffffffffffffffffffffffffffffffffffffffffffffff191614915050612a5b565b600190505b949350505050565b612a6d8383612ad1565b612a7a60008484846128cc565b612ab9576040517f08c379a0000000000000000000000000000000000000000000000000000000008152600401612ab090613f58565b60405180910390fd5b505050565b600080823b905060008111915050919050565b600073ffffffffffffffffffffffffffffffffffffffff168273ffffffffffffffffffffffffffffffffffffffff161415612b41576040517f08c379a0000000000000000000000000000000000000000000000000000000008152600401612b3890614078565b60405180910390fd5b612b4a81611e67565b15612b8a576040517f08c379a0000000000000000000000000000000000000000000000000000000008152600401612b8190613f78565b60405180910390fd5b612b96600083836128c7565b6001600360008473ffffffffffffffffffffffffffffffffffffffff1673ffffffffffffffffffffffffffffffffffffffff1681526020019081526020016000206000828254612be691906142fd565b92505081905550816002600083815260200190815260200160002060006101000a81548173ffffffffffffffffffffffffffffffffffffffff021916908373ffffffffffffffffffffffffffffffffffffffff160217905550808273ffffffffffffffffffffffffffffffffffffffff16600073ffffffffffffffffffffffffffffffffffffffff167fddf252ad1be2c89b69c2b068fc378daa952ba7f163c4a11628f55a4df523b3ef60405160405180910390a45050565b6040518060a0016040528060608152602001606081526020016000815260200160008152602001600081525090565b6040518060c001604052806000815260200160608152602001606081526020016000815260200160008152602001600081525090565b828054612d10906144c8565b90600052602060002090601f016020900481019282612d325760008555612d79565b82601f10612d4b57805160ff1916838001178555612d79565b82800160010185558215612d79579182015b82811115612d78578251825591602001919060010190612d5d565b5b509050612d869190612d8a565b5090565b5b80821115612da3576000816000905550600101612d8b565b5090565b6000612dba612db584614240565b61420f565b905082815260208101848484011115612dd257600080fd5b612ddd848285614486565b509392505050565b600081359050612df481614641565b92915050565b600081359050612e0981614658565b92915050565b600081359050612e1e8161466f565b92915050565b600081519050612e338161466f565b92915050565b600082601f830112612e4a57600080fd5b8135612e5a848260208601612da7565b91505092915050565b600081359050612e7281614686565b92915050565b600060208284031215612e8a57600080fd5b6000612e9884828501612de5565b91505092915050565b60008060408385031215612eb457600080fd5b6000612ec285828601612de5565b9250506020612ed385828601612de5565b9150509250929050565b600080600060608486031215612ef257600080fd5b6000612f0086828701612de5565b9350506020612f1186828701612de5565b9250506040612f2286828701612e63565b9150509250925092565b60008060008060808587031215612f4257600080fd5b6000612f5087828801612de5565b9450506020612f6187828801612de5565b9350506040612f7287828801612e63565b925050606085013567ffffffffffffffff811115612f8f57600080fd5b612f9b87828801612e39565b91505092959194509250565b60008060408385031215612fba57600080fd5b6000612fc885828601612de5565b9250506020612fd985828601612dfa565b9150509250929050565b60008060408385031215612ff657600080fd5b600061300485828601612de5565b925050602061301585828601612e63565b9150509250929050565b60006020828403121561303157600080fd5b600061303f84828501612e0f565b91505092915050565b60006020828403121561305a57600080fd5b600061306884828501612e24565b91505092915050565b60006020828403121561308357600080fd5b600061309184828501612e63565b91505092915050565b60006130a68383613aba565b905092915050565b6130b781614412565b82525050565b60006130c882614280565b6130d281856142ae565b9350836020820285016130e485614270565b8060005b858110156131205784840389528151613101858261309a565b945061310c836142a1565b925060208a019950506001810190506130e8565b50829750879550505050505092915050565b61313b81614424565b82525050565b600061314c8261428b565b61315681856142bf565b9350613166818560208601614495565b61316f81614630565b840191505092915050565b600061318582614296565b61318f81856142d0565b935061319f818560208601614495565b6131a881614630565b840191505092915050565b60006131be82614296565b6131c881856142e1565b93506131d8818560208601614495565b6131e181614630565b840191505092915050565b60006131f782614296565b61320181856142f2565b9350613211818560208601614495565b80840191505092915050565b600061322a600b836142f2565b91507f202d2d204e465420233a200000000000000000000000000000000000000000006000830152600b82019050919050565b600061326a602a836142e1565b91507f6572726f723a20506c61796572206d757374206861766520485020746f20617460008301527f7461636b20626f73732e000000000000000000000000000000000000000000006020830152604082019050919050565b60006132d0602c836142f2565b91507f7d2c207b2274726169745f74797065223a202241747461636b2044616d61676560008301527f222c202276616c7565223a2000000000000000000000000000000000000000006020830152602c82019050919050565b60006133366032836142e1565b91507f4552433732313a207472616e7366657220746f206e6f6e20455243373231526560008301527f63656976657220696d706c656d656e74657200000000000000000000000000006020830152604082019050919050565b600061339c601c836142e1565b91507f4552433732313a20746f6b656e20616c7265616479206d696e746564000000006000830152602082019050919050565b60006133dc600e836142f2565b91507f2c20226d61785f76616c7565223a0000000000000000000000000000000000006000830152600e82019050919050565b600061341c603b836142f2565b91507f222c202261747472696275746573223a205b7b2274726169745f74797065223a60008301527f20224865616c746820506f696e7473222c202276616c7565223a2000000000006020830152603b82019050919050565b60006134826024836142e1565b91507f4552433732313a207472616e7366657220746f20746865207a65726f2061646460008301527f72657373000000000000000000000000000000000000000000000000000000006020830152604082019050919050565b60006134e86019836142e1565b91507f4552433732313a20617070726f766520746f2063616c6c6572000000000000006000830152602082019050919050565b60006135286058836142f2565b91507f222c20226465736372697074696f6e223a20225468697320697320616e204e4660008301527f542074686174206c6574732070656f706c6520706c617920696e20746865206760208301527f616d652056697361676521222c2022696d616765223a202200000000000000006040830152605882019050919050565b60006135b4602c836142e1565b91507f4552433732313a206f70657261746f7220717565727920666f72206e6f6e657860008301527f697374656e7420746f6b656e00000000000000000000000000000000000000006020830152604082019050919050565b600061361a6028836142e1565b91507f6572726f723a20426f7373206d757374206861766520485020746f206265206160008301527f747461636b65642e0000000000000000000000000000000000000000000000006020830152604082019050919050565b60006136806038836142e1565b91507f4552433732313a20617070726f76652063616c6c6572206973206e6f74206f7760008301527f6e6572206e6f7220617070726f76656420666f7220616c6c00000000000000006020830152604082019050919050565b60006136e6602a836142e1565b91507f4552433732313a2062616c616e636520717565727920666f7220746865207a6560008301527f726f2061646472657373000000000000000000000000000000000000000000006020830152604082019050919050565b600061374c6029836142e1565b91507f4552433732313a206f776e657220717565727920666f72206e6f6e657869737460008301527f656e7420746f6b656e00000000000000000000000000000000000000000000006020830152604082019050919050565b60006137b26004836142f2565b91507f7d205d7d000000000000000000000000000000000000000000000000000000006000830152600482019050919050565b60006137f26020836142e1565b91507f4552433732313a206d696e7420746f20746865207a65726f20616464726573736000830152602082019050919050565b6000613832602c836142e1565b91507f4552433732313a20617070726f76656420717565727920666f72206e6f6e657860008301527f697374656e7420746f6b656e00000000000000000000000000000000000000006020830152604082019050919050565b60006138986029836142e1565b91507f4552433732313a207472616e73666572206f6620746f6b656e2074686174206960008301527f73206e6f74206f776e00000000000000000000000000000000000000000000006020830152604082019050919050565b60006138fe600a836142f2565b91507f7b226e616d65223a2022000000000000000000000000000000000000000000006000830152600a82019050919050565b600061393e6021836142e1565b91507f4552433732313a20617070726f76616c20746f2063757272656e74206f776e6560008301527f72000000000000000000000000000000000000000000000000000000000000006020830152604082019050919050565b60006139a4601d836142f2565b91507f646174613a6170706c69636174696f6e2f6a736f6e3b6261736536342c0000006000830152601d82019050919050565b60006139e46031836142e1565b91507f4552433732313a207472616e736665722063616c6c6572206973206e6f74206f60008301527f776e6572206e6f7220617070726f7665640000000000000000000000000000006020830152604082019050919050565b600060a0830160008301518482036000860152613a5a828261317a565b91505060208301518482036020860152613a74828261317a565b9150506040830151613a896040860182613bda565b506060830151613a9c6060860182613bda565b506080830151613aaf6080860182613bda565b508091505092915050565b600060c083016000830151613ad26000860182613bda565b5060208301518482036020860152613aea828261317a565b91505060408301518482036040860152613b04828261317a565b9150506060830151613b196060860182613bda565b506080830151613b2c6080860182613bda565b5060a0830151613b3f60a0860182613bda565b508091505092915050565b600060c083016000830151613b626000860182613bda565b5060208301518482036020860152613b7a828261317a565b91505060408301518482036040860152613b94828261317a565b9150506060830151613ba96060860182613bda565b506080830151613bbc6080860182613bda565b5060a0830151613bcf60a0860182613bda565b508091505092915050565b613be38161447c565b82525050565b613bf28161447c565b82525050565b6000613c03826138f1565b9150613c0f82896131ec565b9150613c1a8261321d565b9150613c2682886131ec565b9150613c318261351b565b9150613c3d82876131ec565b9150613c488261340f565b9150613c5482866131ec565b9150613c5f826133cf565b9150613c6b82856131ec565b9150613c76826132c3565b9150613c8282846131ec565b9150613c8d826137a5565b9150819050979650505050505050565b6000613ca882613997565b9150613cb482846131ec565b915081905092915050565b6000602082019050613cd460008301846130ae565b92915050565b6000608082019050613cef60008301876130ae565b613cfc60208301866130ae565b613d096040830185613be9565b8181036060830152613d1b8184613141565b905095945050505050565b6000606082019050613d3b60008301866130ae565b613d486020830185613be9565b613d556040830184613be9565b949350505050565b60006020820190508181036000830152613d7781846130bd565b905092915050565b6000602082019050613d946000830184613132565b92915050565b60006020820190508181036000830152613db481846131b3565b905092915050565b60006080820190508181036000830152613dd681876131b3565b90508181036020830152613dea81866131b3565b9050613df96040830185613be9565b8181036060830152613e0b81846131b3565b905095945050505050565b60006080820190508181036000830152613e3081876131b3565b90508181036020830152613e4481866131b3565b9050613e536040830185613be9565b613e606060830184613be9565b95945050505050565b600060a0820190508181036000830152613e8381886131b3565b90508181036020830152613e9781876131b3565b9050613ea66040830186613be9565b613eb36060830185613be9565b613ec06080830184613be9565b9695505050505050565b60006040820190508181036000830152613ee481856131b3565b9050613ef36020830184613be9565b9392505050565b60006060820190508181036000830152613f1481866131b3565b9050613f236020830185613be9565b613f306040830184613be9565b949350505050565b60006020820190508181036000830152613f518161325d565b9050919050565b60006020820190508181036000830152613f7181613329565b9050919050565b60006020820190508181036000830152613f918161338f565b9050919050565b60006020820190508181036000830152613fb181613475565b9050919050565b60006020820190508181036000830152613fd1816134db565b9050919050565b60006020820190508181036000830152613ff1816135a7565b9050919050565b600060208201905081810360008301526140118161360d565b9050919050565b6000602082019050818103600083015261403181613673565b9050919050565b60006020820190508181036000830152614051816136d9565b9050919050565b600060208201905081810360008301526140718161373f565b9050919050565b60006020820190508181036000830152614091816137e5565b9050919050565b600060208201905081810360008301526140b181613825565b9050919050565b600060208201905081810360008301526140d18161388b565b9050919050565b600060208201905081810360008301526140f181613931565b9050919050565b60006020820190508181036000830152614111816139d7565b9050919050565b600060208201905081810360008301526141328184613a3d565b905092915050565b600060208201905081810360008301526141548184613b4a565b905092915050565b60006020820190506141716000830184613be9565b92915050565b600060c08201905061418c6000830189613be9565b818103602083015261419e81886131b3565b905081810360408301526141b281876131b3565b90506141c16060830186613be9565b6141ce6080830185613be9565b6141db60a0830184613be9565b979650505050505050565b60006040820190506141fb6000830185613be9565b6142086020830184613be9565b9392505050565b6000604051905081810181811067ffffffffffffffff8211171561423657614235614601565b5b8060405250919050565b600067ffffffffffffffff82111561425b5761425a614601565b5b601f19601f8301169050602081019050919050565b6000819050602082019050919050565b600081519050919050565b600081519050919050565b600081519050919050565b6000602082019050919050565b600082825260208201905092915050565b600082825260208201905092915050565b600082825260208201905092915050565b600082825260208201905092915050565b600081905092915050565b60006143088261447c565b91506143138361447c565b9250827fffffffffffffffffffffffffffffffffffffffffffffffffffffffffffffffff0382111561434857614347614574565b5b828201905092915050565b600061435e8261447c565b91506143698361447c565b925082614379576143786145a3565b5b828204905092915050565b600061438f8261447c565b915061439a8361447c565b9250817fffffffffffffffffffffffffffffffffffffffffffffffffffffffffffffffff04831182151516156143d3576143d2614574565b5b828202905092915050565b60006143e98261447c565b91506143f48361447c565b92508282101561440757614406614574565b5b828203905092915050565b600061441d8261445c565b9050919050565b60008115159050919050565b60007fffffffff0000000000000000000000000000000000000000000000000000000082169050919050565b600073ffffffffffffffffffffffffffffffffffffffff82169050919050565b6000819050919050565b82818337600083830152505050565b60005b838110156144b3578082015181840152602081019050614498565b838111156144c2576000848401525b50505050565b600060028204905060018216806144e057607f821691505b602082108114156144f4576144f36145d2565b5b50919050565b60006145058261447c565b91507fffffffffffffffffffffffffffffffffffffffffffffffffffffffffffffffff82141561453857614537614574565b5b600182019050919050565b600061454e8261447c565b91506145598361447c565b925082614569576145686145a3565b5b828206905092915050565b7f4e487b7100000000000000000000000000000000000000000000000000000000600052601160045260246000fd5b7f4e487b7100000000000000000000000000000000000000000000000000000000600052601260045260246000fd5b7f4e487b7100000000000000000000000000000000000000000000000000000000600052602260045260246000fd5b7f4e487b7100000000000000000000000000000000000000000000000000000000600052604160045260246000fd5b6000601f19601f8301169050919050565b61464a81614412565b811461465557600080fd5b50565b61466181614424565b811461466c57600080fd5b50565b61467881614430565b811461468357600080fd5b50565b61468f8161447c565b811461469a57600080fd5b5056fe506c617965722061747461636b656420626f73732e204e657720626f73732068703a202573426f73732061747461636b656420506c617965722e204e657720506c617965722068703a2025734142434445464748494a4b4c4d4e4f505152535455565758595a6162636465666768696a6b6c6d6e6f707172737475767778797a303132333435363738392b2f4d696e746564204e465420772f20746f6b656e496420257320616e6420636861726163746572496e6465782025730a506c6179657220772f206368617261637465722025732061626f757420746f2061747461636b2e2048617320257320485020616e64202573204144a264697066735822122072193604572a21d0ec1275498f880077e694eada1e6ffebb74454c3e49e1c7fe64736f6c63430008000033646f6e6520696e697469616c697a696e6720257320772f2048502025732c20696d67202573446f6e6520696e697469616c697a696e6720626f737320257320772f2048502025732c20696d67202573",
  "linkReferences": {},
  "deployedLinkReferences": {}
}